:020000040800F2
:1000000000000220313000088130000881300008F3
:1000100081300008813000088130000800000000B5
:10002000000000000000000000000000C1220008E5
:100030008130000800000000D1240008A52F00082E
:1000400081300008813000088130000881300008CC
:1000500081300008813000088130000881300008BC
:1000600081300008813000088130000881300008AC
:10007000813000088130000881300008813000089C
:100080008130000881300008813000080000000045
:1000900000000000000000000000000081300008A7
:1000A00081300008B12F000881300008813000083D
:1000B000813000088130000881300008813000085C
:1000C000813000088130000881300008813000084C
:1000D00081300008813000088130000800000000F5
:1000E00081300008813000088130000800000000E5
:1000F0000000000000000000000000008130000847
:1001000000000000813000088130000881300008C4
:1001100000000000000000000000000000000000DF
:1001200081300008813000088130000881300008EB
:100130008130000800000000000000000000000006
:1001400000000000000000000000000081300008F6
:1001500081300008813000088130000881300008BB
:10016000813000088130000800000000000000001D
:10017000000000000000000000000000000000007F
:1001800000000000813000080000000000000000B6
:080190008130000881300008F5
:1001A00010B5054C237833B9044B13B10448AFF3B1
:1001B00000800123237010BD080000200000000013
:1001C000CC3000080C4B43B10C480D4910B5AFF3CF
:1001D00000800C48036823B910BD0A48036833B98E
:1001E0007047094B002BF7D0BDE810401847064B6D
:1001F000002BF5D0184700BF00000000CC300008ED
:100200000C000020080000200000000053B94AB98B
:10021000002908BF00281CBF4FF0FF314FF0FF300E
:1002200000F07AB9ADF1080C6DE904CE00F006F8E3
:10023000DDF804E0DDE9022304B070472DE9F04762
:100240008C460D460446089E002B51D18A42174623
:100250006DD9B2FA82FEBEF1000F0BD0CEF1200CA8
:1002600001FA0EF520FA0CFC02FA0EF74CEA050C26
:1002700000FA0EF44FEA174A250CBCFBFAF81FFAF5
:1002800087F90AFB18CC45EA0C4508FB09F3AB4299
:100290000AD9ED1908F1FF3280F02381AB4240F218
:1002A0002081A8F102083D44ED1AA4B2B5FBFAF092
:1002B0000AFB105544EA054400FB09F9A14509D998
:1002C000E41900F1FF3380F00A81A14540F2078173
:1002D00002383C44A4EB090440EA08400021002E07
:1002E00061D024FA0EF4002334607360BDE8F08717
:1002F0008B4207D9002E54D0002186E82100084601
:10030000BDE8F087B3FA83F1002940F08E80AB425C
:1003100002D3824200F2FA80841A65EB03050120C1
:10032000AC46002E3FD086E81010BDE8F08712B929
:100330000127B7FBF2F7B7FA87FEBEF1000F34D101
:10034000EB1B3A0C1FFA87FC0121B3FBF2F8250CDA
:1003500002FB183345EA03450CFB08F3AB4207D90F
:10036000ED1908F1FF3002D2AB4200F2D180804695
:10037000ED1AA3B2B5FBF2F002FB105543EA0544B7
:100380000CFB00FCA44507D9E41900F1FF3302D2AD
:10039000A44500F2B8801846A4EB0C0440EA0840DB
:1003A0009DE731463046BDE8F087CEF1200405FADE
:1003B0000EF307FA0EF720FA04F83A0C25FA04F4C3
:1003C00048EA0308B4FBF2F14FEA184502FB114476
:1003D0001FFA87FC45EA044501FB0CF3AB4200FA27
:1003E0000EF409D9ED1901F1FF3080F08A80AB429B
:1003F00040F2878002393D44EB1A1FFA88F5B3FBBF
:10040000F2F002FB103345EA034500FB0CF3AB426C
:1004100007D9ED1900F1FF386FD2AB426DD9023820
:100420003D44EB1A40EA01418FE7C1F1200722FA6F
:1004300007F88B4005FA01F448EA030320FA07FEA7
:100440004FEA134CFD404EEA040EB5FBFCF94FEAAF
:100450001E440CFB19551FFA83F844EA054509FBB5
:1004600008F4AC4202FA01F200FA01FA08D9ED18D8
:1004700009F1FF3043D2AC4241D9A9F102091D4430
:100480002D1B1FFA8EFEB5FBFCF00CFB10554EEA3F
:10049000054400FB08F8A04507D9E41800F1FF3532
:1004A00029D2A04527D902381C4440EA0940A4EBD0
:1004B0000804A0FB02894C45C6464D4615D312D010
:1004C00056B1BAEB0E0364EB050404FA07F7CB4010
:1004D0001F43CC40376074600021BDE8F0871846A8
:1004E000F8E69046E0E6C245EAD2B8EB020E69EBC8
:1004F00003050138E4E72846D7E7404691E78146FF
:10050000BEE7014678E702383C4445E7084608E77D
:10051000A8F102083D442BE7704700BF80B500AF4B
:100520000E4A0E4B1B6843F4007313600B4A0B4BCF
:100530001B6843F480631360084A084B1B6843F44C
:1005400080731360032000F0EFF8002002F0D0FC6D
:1005500002F09CFC0023184680BD00BF003C024016
:1005600080B400AF044B1B680133034A136000BF23
:10057000BD465DF8047B7047743D002080B400AF39
:10058000034B1B681846BD465DF8047B704700BFEF
:10059000743D002080B485B000AF78607B6803F0C4
:1005A0000703FB600C4BDB68BB60BA684FF6FF03C8
:1005B0001340BB60FB681A02BB68134343F0BF6380
:1005C00043F40033BB60044ABB68D36000BF1437F8
:1005D000BD465DF8047B704700ED00E080B400AFDD
:1005E000044BDB681B0A03F007031846BD465DF8A1
:1005F000047B704700ED00E080B483B000AF034699
:10060000FB71094997F907305B09FA7902F01F027B
:10061000012000FA02F241F8232000BF0C37BD464A
:100620005DF8047B704700BF00E100E080B483B058
:1006300000AF03463960FB7197F90730002B0BDAE6
:100640000D49FB7903F00F03043B3A68D2B2120163
:10065000D2B20B441A7609E0084997F907303A6894
:10066000D2B21201D2B20B4483F8002300BF0C3780
:10067000BD465DF8047B704700ED00E000E100E05E
:1006800080B489B000AFF860B9607A60FB6803F0AD
:100690000703FB61FB69C3F10703042B28BF042395
:1006A000BB61FB690433062B02D9FB69033B00E005
:1006B00000237B610122BB6902FA03F35A1EBB6867
:1006C0001A407B699A4001217B6901FA03F3591EA4
:1006D0007B680B40134318462437BD465DF8047B06
:1006E0007047000080B582B000AF78607B68013B46
:1006F000B3F1807F01D301230FE00A4A7B68013BFD
:1007000053600F214FF0FF30FFF790FF054B0022A1
:100710009A60044B07221A60002318460837BD462A
:1007200080BD00BF10E000E080B582B000AF78600F
:100730007868FFF72FFF00BF0837BD4680BD80B542
:1007400086B000AF0346B9607A60FB7300237B611B
:10075000FFF744FF78617A68B9687869FFF790FF1E
:10076000024697F90F3011461846FFF75FFF00BFAA
:100770001837BD4680BD80B582B000AF0346FB711F
:1007800097F907301846FFF737FF00BF0837BD4617
:1007900080BD80B582B000AF78607868FFF7A2FFB7
:1007A000034618460837BD4680BD000080B483B0BC
:1007B00000AF78607B68042B06D1094A084B1B68A0
:1007C00043F00403136005E0054A054B1B6823F062
:1007D0000403136000BF0C37BD465DF8047B70470F
:1007E00010E000E080B489B000AF78603960002389
:1007F0007B6100233B610023BB610023FB6159E166
:100800000122FB6902FA03F37B613B681A687B698A
:1008100013403B613A697B699A4240F048813B68EA
:100820005B68022B03D03B685B68122B23D1FB690A
:10083000DA087B68083253F82230BB61FB6903F0A9
:1008400007039B000F2202FA03F3DB43BA6913404C
:10085000BB613B681A69FB6903F007039B0002FA5E
:1008600003F3BA691343BB61FB69DA087B6808329A
:10087000B96943F822107B681B68BB61FB695B00A8
:10088000032202FA03F3DB43BA691340BB613B68FE
:100890005B6803F00302FB695B0002FA03F3BA69C9
:1008A0001343BB617B68BA691A603B685B68012BC4
:1008B0000BD03B685B68022B07D03B685B68112B51
:1008C00003D03B685B68122B30D17B689B68BB61AF
:1008D000FB695B00032202FA03F3DB43BA691340AE
:1008E000BB613B68DA68FB695B0002FA03F3BA6933
:1008F0001343BB617B68BA699A607B685B68BB61C4
:100900000122FB6902FA03F3DB43BA691340BB61BE
:100910003B685B681B0903F00102FB6902FA03F301
:10092000BA691343BB617B68BA695A607B68DB684C
:10093000BB61FB695B00032202FA03F3DB43BA6984
:100940001340BB613B689A68FB695B0002FA03F3E2
:10095000BA691343BB617B68BA69DA603B685B685C
:1009600003F08053002B00F0A2800023FB60564A66
:10097000554B5B6C43F480435364534B5B6C03F403
:100980008043FB60FB68514AFB699B08023352F8C5
:100990002330BB61FB6903F003039B000F2202FAC3
:1009A00003F3DB43BA691340BB617B68484A934257
:1009B00019D07B68474A934213D07B68464A9342DA
:1009C0000DD07B68454A934207D07B68444A9342E6
:1009D00001D1042308E0072306E0032304E00223F7
:1009E00002E0012300E00023FA6902F00302920012
:1009F0009340BA691343BB613449FB699B080233D6
:100A0000BA6941F82320374B1B68BB613B69DB4364
:100A1000BA691340BB613B685B6803F48033002B09
:100A200003D0BA693B691343BB612E4ABB691360AB
:100A30002C4B5B68BB613B69DB43BA691340BB610C
:100A40003B685B6803F40033002B03D0BA693B6951
:100A50001343BB61234ABB695360224B9B68BB6154
:100A60003B69DB43BA691340BB613B685B6803F4D5
:100A70008013002B03D0BA693B691343BB61194A49
:100A8000BB699360174BDB68BB613B69DB43BA69A9
:100A90001340BB613B685B6803F40013002B03D079
:100AA000BA693B691343BB610E4ABB69D360FB69FA
:100AB0000133FB61FB690F2B7FF6A2AE00BF243729
:100AC000BD465DF8047B70470038024000380140A5
:100AD000000002400004024000080240000C0240F6
:100AE00000100240003C014080B483B000AF786049
:100AF0000B467B8013467B707B78002B03D07A8873
:100B00007B689A6103E07B881A047B689A6100BF66
:100B10000C37BD465DF8047B7047000080B584B09B
:100B200000AF78607B68002B01D1012313E27B6862
:100B30001B6803F00103002B75D09F4B9B6803F0EB
:100B40000C03042B0CD09C4B9B6803F00C03082B6C
:100B500012D1994B5B6803F48003B3F5800F0BD17E
:100B6000954B1B6803F40033002B5BD07B685B68FC
:100B7000002B57D10123EEE17B685B68B3F5803F22
:100B800006D18D4A8C4B1B6843F4803313601DE003
:100B90007B685B68B3F5A02F0CD1874A864B1B6836
:100BA00043F480231360844A834B1B6843F48033EF
:100BB00013600BE0804A804B1B6823F48033136082
:100BC0007D4A7D4B1B6823F4802313607B685B6840
:100BD000002B13D0FFF7D2FCF86008E0FFF7CEFC43
:100BE0000246FB68D31A642B01D90323B3E1724B8D
:100BF0001B6803F40033002BF0D014E0FFF7BEFCB9
:100C0000F86008E0FFF7BAFC0246FB68D31A642BD1
:100C100001D903239FE1684B1B6803F40033002BC9
:100C2000F0D100E000BF7B681B6803F00203002BDB
:100C300063D0614B9B6803F00C03002B0BD05E4B21
:100C40009B6803F00C03082B1CD15B4B5B6803F41F
:100C50008003002B16D1584B1B6803F00203002BB6
:100C600005D07B68DB68012B01D0012373E1524979
:100C7000514B1B6823F0F8027B681B69DB001343B0
:100C80000B603AE07B68DB68002B20D04B4B0122E5
:100C90001A60FFF773FCF86008E0FFF76FFC02468C
:100CA000FB68D31A022B01D9032354E1424B1B6882
:100CB00003F00203002BF0D03F493F4B1B6823F0A9
:100CC000F8027B681B69DB0013430B6015E03B4BAC
:100CD00000221A60FFF752FCF86008E0FFF74EFCB4
:100CE0000246FB68D31A022B01D9032333E1324BAE
:100CF0001B6803F00203002BF0D17B681B6803F034
:100D00000803002B30D07B685B69002B16D02C4B7E
:100D100001221A60FFF732FCF86008E0FFF72EFCB2
:100D20000246FB68D31A022B01D9032313E1224B9D
:100D30005B6F03F00203002BF0D015E0204B002284
:100D40001A60FFF71BFCF86008E0FFF717FC02468B
:100D5000FB68D31A022B01D90323FCE0164B5B6F0F
:100D600003F00203002BF0D17B681B6803F004033F
:100D7000002B00F086800023BB600F4A0E4B1B6CDB
:100D800043F0805313640C4B1B6C03F08053BB6027
:100D9000BB680C4A0B4B1B6843F480731360FFF76E
:100DA000EDFBF86010E0FFF7E9FB0246FB68D31AA1
:100DB000022B09D90323CEE000380240000047424D
:100DC000800E474200700040654B1B6803F480733F
:100DD000002BE8D07B689B68012B06D1614A614BF0
:100DE0001B6F43F0010313671CE07B689B68052BB6
:100DF0000CD15C4A5B4B1B6F43F004031367594AE9
:100E0000584B1B6F43F0010313670BE0554A554BDA
:100E10001B6F23F001031367524A524B1B6F23F0E1
:100E2000040313677B689B68002B15D0FFF7A6FBB4
:100E3000F8600AE0FFF7A2FB0246FB68D31A41F212
:100E40008832934201D9032385E0464B1B6F03F0A0
:100E50000203002BEED014E0FFF790FBF8600AE0ED
:100E6000FFF78CFB0246FB68D31A41F288329342AB
:100E700001D903236FE03B4B1B6F03F00203002BF0
:100E8000EED17B689B69002B64D0364B9B6803F0E6
:100E90000C03082B5CD07B689B69022B41D1324B41
:100EA00000221A60FFF76AFBF86008E0FFF766FBB4
:100EB0000246FB68D31A022B01D903234BE0294BCE
:100EC0001B6803F00073002BF0D126497B68DA69B8
:100ED0007B681B6A1A437B685B6A9B011A437B68C9
:100EE0009B6A5B08013B1B041A437B68DB6A1B0699
:100EF00013434B601C4B01221A60FFF73FFBF86065
:100F000008E0FFF73BFB0246FB68D31A022B01D92E
:100F1000032320E0134B1B6803F00073002BF0D079
:100F200018E0114B00221A60FFF728FBF86008E078
:100F3000FFF724FB0246FB68D31A022B01D90323D7
:100F400009E0084B1B6803F00073002BF0D101E0AF
:100F5000012300E0002318461037BD4680BD00BFC6
:100F600000700040003802406000474280B584B005
:100F700000AF786039607B68002B01D10123CAE0A3
:100F8000674B1B6803F00F023B689A420CD2644B1C
:100F90003A68D2B21A70624B1B6803F00F023B68CA
:100FA0009A4201D00123B6E07B681B6803F002037C
:100FB000002B20D07B681B6803F00403002B05D0B6
:100FC000584A584B9B6843F4E05393607B681B6816
:100FD00003F00803002B05D0524A524B9B6843F4A0
:100FE000604393604F494F4B9B6823F0F0027B684E
:100FF0009B6813438B607B681B6803F00103002B25
:1010000044D07B685B68012B07D1464B1B6803F417
:101010000033002B19D101237DE07B685B68022B34
:1010200003D07B685B68032B07D13E4B1B6803F042
:101030000073002B09D101236DE03A4B1B6803F0CC
:101040000203002B01D1012365E03649354B9B6833
:1010500023F003027B685B6813438B60FFF78EFA13
:10106000F8600AE0FFF78AFA0246FB68D31A41F2F9
:101070008832934201D903234DE02A4B9B6803F049
:101080000C027B685B689B009A42EBD1244B1B6887
:1010900003F00F023B689A420CD9214B3A68D2B256
:1010A0001A701F4B1B6803F00F023B689A4201D075
:1010B000012330E07B681B6803F00403002B08D099
:1010C0001849184B9B6823F4E0527B68DB68134394
:1010D0008B607B681B6803F00803002B09D0114963
:1010E000104B9B6823F460427B681B69DB00134351
:1010F0008B6000F01DF801460A4B9B681B0903F04A
:101100000F03094AD35C21FA03F3084A1360002055
:1011100001F0EEFE002318461037BD4680BD00BF2B
:10112000003C0240003802403C310008040000202E
:101130002DE9F04F8FB000AF0023FB6200237B63EB
:101140000023BB6200233B63624B9B6803F00C03EC
:10115000042B07D0082B08D0002B40F0B2805E4B48
:101160003B63B1E05D4B3B63AEE05A4B5B6803F021
:101170003F03FB62574B5B6803F48003002B4ED0A8
:10118000544B5B689B094FF0000440F2FF114FF095
:10119000000201EA030102EA04020B461446600160
:1011A0007862786A40EAD36078625B013B62D7E993
:1011B00008345B1A64EB02044FEA841949EA936924
:1011C0004FEA8318B8EB030869EB04094FEAC90337
:1011D000FB61FB6943EA5873FB614FEAC803BB61DB
:1011E000D7E9068918EB010849EB02094FEA4923C0
:1011F0007B617B6943EAD8537B614FEA48233B61BB
:10120000D7E9048940464946FB6A4FF000041A4674
:101210002346FEF7FBFF03460C467B6343E02D4B62
:101220005B689B094FF0000440F2FF114FF0000291
:1012300001EA030102EA04020B4614466001F86069
:10124000F86840EAD360F8605B01BB60D7E902341C
:101250005B1A64EB0204A60146EA93669D01ED1A4F
:1012600066EB0406F3007B607B6843EA55737B60A2
:10127000EB003B60D7E900566D1846EB02064FEADB
:10128000862B4BEA955B4FEA852A55465E462846F3
:101290003146FB6A4FF000041A462346FEF7B6FFBC
:1012A00003460C467B630B4B5B681B0C03F003038C
:1012B00001335B00BB627A6BBB6AB2FBF3F33B6347
:1012C00002E0054B3B6300BF3B6B18463C37BD4615
:1012D000BDE8F08F003802400024F40000127A00CC
:1012E00080B400AF034B1B681846BD465DF8047B15
:1012F000704700BF0400002080B500AFFFF7F0FF8B
:101300000146054B9B685B0B03F00703034AD35C64
:1013100021FA03F3184680BD003802404C31000822
:1013200080B483B000AF786039607B680F221A60A8
:10133000124B9B6803F003027B685A600F4B9B685B
:1013400003F0F0027B689A600C4B9B6803F4E05258
:101350007B68DA60094B9B68DB0803F4E0527B682A
:101360001A61074B1B6803F00F023B681A6000BF4D
:101370000C37BD465DF8047B704700BF0038024063
:10138000003C024080B582B000AF78607B68002BE3
:1013900001D101231DE07B6893F83930DBB2002BCB
:1013A00006D17B68002283F83820786800F015F8B1
:1013B0007B68022283F839207B681A687B680433D3
:1013C0001946104600F05EF97B68012283F8392047
:1013D000002318460837BD4680BD80B483B000AFF7
:1013E000786000BF0C37BD465DF8047B704780B461
:1013F00083B000AF78607B681B687A681268D26837
:1014000042F00102DA607B681B687A681268126831
:1014100042F001021A60002318460C37BD465DF801
:10142000047B704780B582B000AF78607B681B6832
:101430001B6903F00203022B22D17B681B68DB6867
:1014400003F00203022B1BD17B681B686FF00202C2
:101450001A617B6801221A767B681B689B6903F01E
:101460000303002B03D0786800F0EEF805E07868FD
:1014700000F0E0F8786800F0F1F87B6800221A7656
:101480007B681B681B6903F00403042B22D17B6873
:101490001B68DB6803F00403042B1BD17B681B680B
:1014A0006FF004021A617B6802221A767B681B685F
:1014B0009B6903F44073002B03D0786800F0C4F8F4
:1014C00005E0786800F0B6F8786800F0C7F87B6847
:1014D00000221A767B681B681B6903F00803082B3F
:1014E00022D17B681B68DB6803F00803082B1BD143
:1014F0007B681B686FF008021A617B6804221A7609
:101500007B681B68DB6903F00303002B03D078685A
:1015100000F09AF805E0786800F08CF8786800F040
:101520009DF87B6800221A767B681B681B6903F0B4
:101530001003102B22D17B681B68DB6803F01003BB
:10154000102B1BD17B681B686FF010021A617B683F
:1015500008221A767B681B68DB6903F44073002B52
:1015600003D0786800F070F805E0786800F062F861
:10157000786800F073F87B6800221A767B681B6835
:101580001B6903F00103012B0ED17B681B68DB682C
:1015900003F00103012B07D17B681B686FF0010288
:1015A0001A61786801F05AFC7B681B681B6903F0BC
:1015B0008003802B0ED17B681B68DB6803F08003FF
:1015C000802B07D17B681B686FF080021A617868F6
:1015D00000F0E6F87B681B681B6903F04003402BB2
:1015E0000ED17B681B68DB6803F04003402B07D1FA
:1015F0007B681B686FF040021A61786800F038F869
:101600007B681B681B6903F02003202B0ED17B68CD
:101610001B68DB6803F02003202B07D17B681B6865
:101620006FF020021A61786800F0B0F800BF083748
:10163000BD4680BD80B483B000AF786000BF0C377A
:10164000BD465DF8047B704780B483B000AF78601E
:1016500000BF0C37BD465DF8047B704780B483B093
:1016600000AF786000BF0C37BD465DF8047B704763
:1016700080B483B000AF786000BF0C37BD465DF822
:10168000047B704780B485B000AF78603960002378
:10169000FB607B681B68FB607B68354A93420FD018
:1016A0007B68B3F1804F0BD07B68324A934207D0FE
:1016B0007B68314A934203D07B68304A934201D120
:1016C000012300E00023002B08D0FB6823F0700307
:1016D000FB603B685B68FA681343FB607B68244AE5
:1016E00093421BD07B68B3F1804F17D07B68214AAF
:1016F000934213D07B68204A93420FD07B681F4AE5
:1017000093420BD07B681E4A934207D07B681D4AE8
:10171000934203D07B681C4A934201D1012300E02D
:101720000023002B08D0FB6823F44073FB603B6868
:10173000DB68FA681343FB607B68FA681A603B68F1
:101740009A687B68DA623B681A687B689A627B6891
:10175000074A934203D13B681A697B681A637B6826
:1017600001225A6100BF1437BD465DF8047B704703
:10177000000001400004004000080040000C004050
:1017800000400140004401400048014080B483B063
:1017900000AF786000BF0C37BD465DF8047B704732
:1017A00080B483B000AF786000BF0C37BD465DF8F1
:1017B000047B704780B483B000AF78607B6803F12E
:1017C00008027B685A607B684FF0FF329A607B6842
:1017D00003F108027B68DA607B6803F108027B682A
:1017E0001A617B6800221A6000BF0C37BD465DF8A5
:1017F000047B704780B483B000AF78607B680022C0
:101800001A6100BF0C37BD465DF8047B704780B499
:1018100085B000AF786039607B685B68FB603B68CF
:10182000FA685A60FB689A683B689A60FB689B6834
:101830003A685A60FB683A689A603B687A681A614D
:101840007B681B685A1C7B681A6000BF1437BD4652
:101850005DF8047B704780B485B000AF78607B682A
:101860001B69FB607B685B687A6892689A607B683A
:101870009B687A6852685A60FB685A687B689A422B
:1018800003D17B689A68FB685A607B6800221A6102
:10189000FB681B685A1EFB681A60FB681B681846C9
:1018A0001437BD465DF8047B704780B58CB004AF3B
:1018B000F860B9603B601346FB80FB889B001846CC
:1018C00000F0BEFE78617B69002B0ED0542000F042
:1018D000B7FEF861FB69002B03D0FB697A691A63D4
:1018E00005E0786900F06EFF01E00023FB61FB6911
:1018F000002B13D0FA8800230393FB690293FB6A41
:101900000193BB6A00933B68B968F86800F00EF871
:10191000F86900F089F80123BB6102E04FF0FF3362
:10192000BB61BB6918462037BD4680BD80B588B015
:1019300000AFF860B9607A603B603B6B1A6B7B6804
:1019400003F18043013B9B001344BB61BB6923F05F
:101950000703BB61BB6903F00703002B09D04FF0FD
:10196000500383F31188BFF36F8FBFF34F8F7B61F9
:10197000FEE70023FB6112E0BA68FB6913441978A3
:101980003A6BFB69134434330A461A70BA68FB6930
:1019900013441B78002B06D0FB690133FB61FB6904
:1019A0000F2BE9D900E000BF3B6B002283F84320F6
:1019B000BB6A062B01D90623BB623B6BBA6ADA62AB
:1019C0003B6BBA6A5A643B6B00229A643B6B0433EC
:1019D0001846FFF70FFF3B6B18331846FFF70AFF57
:1019E0003B6B3A6B1A61BB6AC3F107023B6B9A61AE
:1019F0003B6B3A6B5A623B6B0022DA643B6B002212
:101A000083F850203A68F968B86900F007FC02468C
:101A10003B6B1A60FB6A002B02D0FB6A3A6B1A60C0
:101A200000BF2037BD4680BD80B582B000AF786072
:101A300000F0F6FC2A4B1B680133294A1360294B3E
:101A40001B68002B09D1274A7B681360244B1B6855
:101A5000012B10D100F092FA0DE0234B1B68002BF4
:101A600009D1204B1B68DA6A7B68DB6A9A4202D88C
:101A70001C4A7B6813601D4B1B6801331B4A1360B3
:101A80007B68DB6A01229A40194B1B681343184A92
:101A900013607B68DA6A13469B0013449B00154A67
:101AA0001A447B68043319461046FFF7B0FE00F075
:101AB000E5FC0D4B1B68002B0ED00A4B1B68DA6A45
:101AC0007B68DB6A9A4207D20B4B4FF080521A6058
:101AD000BFF34F8FBFF36F8F00BF0837BD4680BD88
:101AE00024010020240000203001002040010020BB
:101AF0002C0100202800002004ED00E080B586B015
:101B000002AF1B4B0193002300930023802219494D
:101B10001948FFF7CAFEF860FB68012B15D14FF09A
:101B2000500383F31188BFF36F8FBFF34F8FBB60F8
:101B3000124B4FF0FF321A60114B01221A60114B09
:101B400000221A6000F0E0FB0DE0FB68B3F1FF3FFC
:101B500009D14FF0500383F31188BFF36F8FBFF3A8
:101B60004F8F7B60FEE700BF1037BD4680BD00BFD2
:101B700048010020E43000084D1F00084401002007
:101B8000300100202801002080B400AF044B1B6806
:101B90000133034A136000BFBD465DF8047B704704
:101BA0004C01002080B584B000AF0023FB6000230F
:101BB000BB60414B1B68002B09D14FF0500383F3EE
:101BC0001188BFF36F8FBFF34F8F3B60FEE700F0CC
:101BD00027FC394B1B68013B374A1360364B1B68A7
:101BE000002B61D1354B1B68002B5DD02EE0344BB0
:101BF000DB68DB68FB60FB6818331846FFF72BFED9
:101C0000FB6804331846FFF726FEFB68DB6A0122F7
:101C10009A402C4B1B6813432A4A1360FB68DA6A0C
:101C200013469B0013449B00274A1A44FB68043365
:101C300019461046FFF7EBFDFB68DA6A234B1B6879
:101C4000DB6A9A4202D3224B01221A601C4B1B68AA
:101C5000002BCCD1FB68002B01D000F01BFA1D4BF0
:101C60001B687B607B68002B10D000F059F803469E
:101C7000002B02D0164B01221A607B68013B7B606F
:101C80007B68002BF1D1134B00221A60104B1B68AC
:101C9000002B09D00123BB600F4B4FF080521A601C
:101CA000BFF34F8FBFF36F8F00F0E8FBBB681846A0
:101CB0001037BD4680BD00BF4C010020240100202C
:101CC000E40000202C010020280000202400002037
:101CD000380100203401002004ED00E080B483B01E
:101CE00000AF054B1B687B607B6818460C37BD4610
:101CF0005DF8047B704700BF2801002080B582B0EA
:101D000000AF00F05FFC00237B60044B1B683B606E
:101D10003B6818460837BD4680BD00BF280100203B
:101D200080B586B000AF00237B61504B1B68002B51
:101D300040F08C804E4B1B6801333B614C4A3B6941
:101D400013603B69002B1FD14A4B1B681B68002B9B
:101D500009D04FF0500383F31188BFF36F8FBFF3A7
:101D60004F8F3B60FEE7434B1B68FB60424B1B6899
:101D7000404A1360404AFB681360404B1B680133C4
:101D80003E4A136000F086F93D4B1B683A699A425F
:101D90004DD3384B1B681B68002B01D1012300E099
:101DA0000023002B04D0364B4FF0FF321A603EE088
:101DB000304B1B68DB68DB68BB60BB685B687B60C3
:101DC0003A697B689A4203D22D4A7B6813602EE001
:101DD000BB6804331846FFF73EFDBB689B6A002BC7
:101DE00004D0BB6818331846FFF735FDBB68DB6AC3
:101DF00001229A40234B1B681343224A1360BB689D
:101E0000DA6A13469B0013449B001F4A1A44BB68BE
:101E1000043319461046FFF7FAFCBB68DA6A1B4B1D
:101E20001B68DB6A9A42B4D301237B61B1E7174B8D
:101E30001B68DA6A144913469B0013449B000B4449
:101E40001B68012B07D901237B6104E0104B1B6841
:101E500001330F4A13600F4B1B68002B01D0012385
:101E60007B617B6918461837BD4680BD4C01002058
:101E700028010020DC000020E00000203C010020C0
:101E8000440100202C010020280000202400002014
:101E9000340100203801002080B487B000AF264B09
:101EA0001B68002B03D0254B01221A603EE0234B18
:101EB00000221A60224B1B68FB60FB68B3FA83F3B5
:101EC000FB72FB7AC3F11F037B611E497A691346DB
:101ED0009B0013449B000B441B68002B09D14FF05F
:101EE000500383F31188BFF36F8FBFF34F8F7B6075
:101EF000FEE77A6913469B0013449B00114A134482
:101F00003B613B695B685A683B695A603B695A6848
:101F10003B6908339A4204D13B695B685A683B6964
:101F20005A603B695B68DB68074A136000BF1C3777
:101F3000BD465DF8047B70474C010020380100204D
:101F40002C010020280000202400002080B582B051
:101F500000AF786000F052F8064B1B68012BF9D9EE
:101F6000054B4FF080521A60BFF34F8FBFF36F8F56
:101F7000F0E700BF2800002004ED00E080B582B04B
:101F800000AF00237B600CE07A6813469B0013448B
:101F90009B00124A13441846FFF70CFC7B68013380
:101FA0007B607B68062BEFD90D48FFF703FC0D48DB
:101FB000FFF700FC0C48FFF7FDFB0C48FFF7FAFBAE
:101FC0000B48FFF7F7FB0B4B054A1A600A4B054A13
:101FD0001A6000BF0837BD4680BD00BF2800002042
:101FE000B4000020C8000020E4000020F800002019
:101FF00010010020DC000020E000002080B582B04D
:1020000000AF28E0FFF7C0FD174B1B68002B0CBF8B
:1020100001230023DBB27B60FFF7C4FD7B68002B4C
:1020200019D100F0FDF9104BDB68DB683B603B68C1
:1020300004331846FFF70FFC0C4B1B68013B0B4A9F
:1020400013600B4B1B68013B094A136000F016FA42
:10205000386800F00FF8064B1B68002BD2D100BF88
:102060000837BD4680BD00BFF800002024010020D5
:102070000C01002080B582B000AF78607B681B6BDC
:10208000184600F09FFB786800F09CFB00BF083703
:10209000BD4680BD80B483B000AF0F4B1B681B688A
:1020A000002B01D1012300E00023002B04D00B4BB7
:1020B0004FF0FF321A6008E0074B1B68DB68DB68F3
:1020C0007B607B685B68054A136000BF0C37BD46C8
:1020D0005DF8047B704700BFDC0000204401002055
:1020E00080B483B000AF0B4B1B68002B02D10123DF
:1020F0007B6008E0084B1B68002B02D102237B6049
:1021000001E000237B607B6818460C37BD465DF814
:10211000047B7047300100204C01002080B485B062
:1021200000AF0346FB800023FB60B7F90630842B29
:1021300005D0B7F90620FB6813440333FB60FB6846
:1021400018461437BD465DF8047B704780B483B0F1
:1021500000AFEFF305837B607B68002B14BF012386
:102160000023DBB218460C37BD465DF8047B704790
:1021700080B500AFFFF7C2FC0023184680BD80B5D4
:1021800000AFFFF7E3FF0346002B03D0FFF7B6FDD8
:10219000034602E0FFF7A2FD0346184680BDF0B5F6
:1021A00087B002AF786039607B685C687B681D68C7
:1021B0007B681B699EB27B68B3F908301846FFF74D
:1021C000ADFF024607F10C03019300923B683246D3
:1021D00029462046FFF769FB0346012B01D0002367
:1021E00000E0FB6818461437BD46F0BD80B500AF6F
:1021F000FFF776FF0346012B01D000F09DF900BFE9
:1022000080BD80B483B000AF786039608123184608
:102210000C37BD465DF8047B7047000080B485B084
:1022200000AFF860B9607A60FB68043BFB60FB6854
:102230004FF080721A60FB68043BFB60BB6823F0C0
:102240000102FB681A60FB68043BFB600C4AFB68F8
:102250001A60FB68143BFB607A68FB681A60FB68D5
:10226000043BFB60FB686FF002021A60FB68203BD6
:10227000FB60FB6818461437BD465DF8047B704769
:102280008522000880B483B000AF0C4B1B68B3F10B
:10229000FF3F09D04FF0500383F31188BFF36F8FD6
:1022A000BFF34F8F7B60FEE74FF0500383F311883D
:1022B000BFF36F8FBFF34F8F3B60FEE7000000203E
:1022C000074B19680868B0E8F04F80F30988BFF33E
:1022D0006F8F4FF0000080F311887047AFF30080DC
:1022E0002400002000BF00BF06480068006880F39B
:1022F000088862B661B6BFF34F8FBFF36F8F00DF00
:1023000000BF00BF08ED00E080B586B000AF3B4BDA
:102310001B683B4A934209D14FF0500383F3118865
:10232000BFF36F8FBFF34F8F3B61FEE7334B1B68EB
:10233000344A934209D14FF0500383F31188BFF31D
:102340006F8FBFF34F8FFB60FEE72F4B7B617B6985
:102350001B78DBB2BB607B69FF221A707B691B783C
:10236000DBB2FB71FB79DBB203F05003DAB2274B2F
:102370001A70274B07221A6009E0254B1B68013BA6
:10238000234A1360FB79DBB25B00DBB2FB71FB79A4
:10239000DBB203F08003802BEFD01D4B1B681B02C8
:1023A0001B4A13601A4B1B6803F4E063184A13605E
:1023B000BB68DAB27B691A70164A164B1B6843F485
:1023C00070031360134A134B1B6843F07043136090
:1023D00000F0D2F8104B00221A6000F0E9F80F4A22
:1023E0000E4B1B6843F040431360FFF77DFFFFF780
:1023F00049FF002318461837BD4680BD00ED00E0B8
:1024000071C20F4170C20F4100E400E05001002092
:102410005401002020ED00E00000002034EF00E037
:1024200080B483B000AF4FF0500383F31188BFF343
:102430006F8FBFF34F8F7B600E4B1B6801330D4ACC
:1024400013600C4B1B68012B0ED10B4B1B68DBB2CE
:10245000002B09D04FF0500383F31188BFF36F8F27
:10246000BFF34F8F3B60FEE700BF0C37BD465DF802
:10247000047B70470000002004ED00E080B483B0CE
:1024800000AF114B1B68002B09D14FF0500383F3B1
:102490001188BFF36F8FBFF34F8F7B60FEE70A4B4E
:1024A0001B68013B084A1360074B1B68002B04D1D3
:1024B00000233B603B6883F3118800BF0C37BD46A7
:1024C0005DF8047B704700BF0000002000000000A2
:1024D000EFF30980BFF36F8F154B1A681EF0100FD2
:1024E00008BF20ED108A20E9F04F10604DF8043D40
:1024F0004FF0500080F31188BFF34F8FBFF36F8F01
:10250000FFF7CAFC4FF0000080F3118808BC19687F
:102510000868B0E8F04F1EF0100F08BFB0EC108A4A
:1025200080F30988BFF36F8F704700BFAFF300805F
:102530002400002000BF00BF80B582B000AF4FF084
:10254000500383F31188BFF36F8FBFF34F8F7B600E
:10255000FFF7E6FB0346002B03D0064B4FF08052FB
:102560001A6000233B603B6883F3118800BF083783
:10257000BD4680BD04ED00E080B400AF084A094BC1
:102580001B680949A1FB03139B09013B1360074B1F
:1025900007221A6000BFBD465DF8047B704700BF8C
:1025A00014E000E004000020D34D621010E000E0D1
:1025B000DFF80C00016841F470010160704700BF52
:1025C00088ED00E080B485B000AFEFF30583FB60D9
:1025D000FB680F2B13D9164AFB6813441B78FB7258
:1025E000144B1B78FA7A9A4209D24FF0500383F3C6
:1025F0001188BFF36F8FBFF34F8F7B60FEE70E4BE9
:102600001B6803F4E0620D4B1B689A4209D94FF036
:10261000500383F31188BFF36F8FBFF34F8F3B607D
:10262000FEE700BF1437BD465DF8047B704700BF6E
:10263000F0E300E0500100200CED00E05401002028
:1026400080B58AB000AF78600023FB61FFF79CFA89
:10265000574B1B68002B01D100F00CF9554B1A6841
:102660007B681340002B40F08C807B68002B1CD0D3
:1026700008227B6813447B607B6803F00703002B10
:1026800013D07B6823F0070308337B607B6803F07B
:102690000703002B09D04FF0500383F31188BFF3D9
:1026A0006F8FBFF34F8F7B61FEE77B68002B68D095
:1026B000414B1B687A689A4263D8404B3B623F4B60
:1026C0001B687B6204E07B6A3B627B6A1B687B62FF
:1026D0007B6A5A687B689A4203D27B6A1B68002B2C
:1026E000F1D1334B1B687A6A9A424AD03B6A1B6825
:1026F00008221344FB617B6A1A683B6A1A607B6A92
:102700005A687B68D21A08235B009A421ED97A6AFB
:102710007B681344BB61BB6903F00703002B09D03E
:102720004FF0500383F31188BFF36F8FBFF34F8FC8
:102730003B61FEE77B6A5A687B68D21ABB695A60C4
:102740007B6A7A685A60B86900F0F6F81A4B1A6822
:102750007B6A5B68D31A184A1360174B1A68184BC8
:102760001B689A4203D2144B1B68154A13607B6A9C
:102770005A68104B1B681A437B6A5A607B6A0022B6
:102780001A60FFF70FFAFB6903F00703002B09D06B
:102790004FF0500383F31188BFF36F8FBFF34F8F58
:1027A000FB60FEE7FB6918462837BD4680BD00BFC9
:1027B000603D00206C3D0020643D0020583D00201D
:1027C000683D002080B586B000AF78607B687B6193
:1027D0007B68002B46D008235B427A6913447B61F7
:1027E0007B693B613B695A68204B1B681340002B97
:1027F00009D14FF0500383F31188BFF36F8FBFF3FC
:102800004F8FFB60FEE73B691B68002B09D04FF040
:10281000500383F31188BFF36F8FBFF34F8FBB60FB
:10282000FEE73B695A68114B1B681340002B19D017
:102830003B691B68002B15D13B695A680B4B1B6821
:10284000DB431A403B695A60FFF79EF93B695A68BF
:10285000074B1B681344064A1360386900F06CF894
:10286000FFF7A0F900BF1837BD4680BD6C3D0020C2
:10287000643D002080B485B000AF4FF47053BB605E
:10288000274BFB60FB6803F00703002B0CD0FB68B1
:102890000733FB60FB6823F00703FB60BA68FB6843
:1028A000D31A1F4A1344BB60FB687B601D4A7B68D8
:1028B00013601C4B00225A607A68BB681344FB60AB
:1028C0000822FB689B1AFB60FB6823F00703FB6090
:1028D000FB68154A1360144B1B6800225A60124BA8
:1028E0001B6800221A607B683B603B68FA68D21A5A
:1028F0003B685A600C4B1A683B681A603B685B681F
:102900000A4A13603B685B68094A1360094B4FF041
:1029100000421A6000BF1437BD465DF8047B704763
:1029200058010020583D0020603D0020683D0020F7
:10293000643D00206C3D002080B485B000AF78601D
:10294000284BFB6002E0FB681B68FB60FB681A68B1
:102950007B689A42F7D3FB68BB60FB685B68BA6828
:102960001A447B689A4208D1FB685A687B685B68A6
:102970001A44FB685A60FB687B607B68BB607B68BD
:102980005B68BA681A44FB681B689A4218D1FB68F6
:102990001A68154B1B689A420DD07B685A68FB6811
:1029A0001B685B681A447B685A60FB681B681A687E
:1029B0007B681A6008E00C4B1A687B681A6003E0B9
:1029C000FB681A687B681A60FA687B689A4202D0D2
:1029D000FB687A681A6000BF1437BD465DF8047B57
:1029E000704700BF583D0020603D0020B0B58AB060
:1029F00000AFFDF793FD00F02DF800F0A1F8114BAA
:102A000007F114041D460FCD0FC42B68236007F196
:102A1000140300211846FFF7C2FB02460A4B1A6056
:102A20000A4B3C461D460FCD0FC42B6823603B4626
:102A300000211846FFF7B3FB0246054B1A60FFF76B
:102A400097FBFEE7F8300008783D00201C310008B5
:102A5000703D002080B594B000AF0023BB60344AC5
:102A6000334B1B6C43F080531364314B1B6C03F0EE
:102A70008053BB60BB6800237B602E4A2D4B1B68D4
:102A800043F4404313602B4B1B6803F440437B60CB
:102A90007B6802233B620123FB6210233B6302231A
:102AA000BB630023FB6308233B64C0237B640423D4
:102AB000BB640823FB6407F120031846FEF72EF8D9
:102AC0000346002B03D0B7211B4800F0D9F90F2390
:102AD000FB6002233B6100237B614FF4A053BB6189
:102AE0004FF48053FB6107F10C0303211846FEF7F6
:102AF0003DFA0346002B03D0C5210F4800F0C0F972
:102B0000FEF7EEFB02460D4BA3FB02239B09184682
:102B1000FDF73FFE0420FDF749FE00220F214FF094
:102B2000FF30FDF70CFE00BF5037BD4680BD00BF33
:102B3000003802400070004030310008D34D621070
:102B400080B58CB000AF0023BB61A14AA04B1B6BCA
:102B500043F0100313639E4B1B6B03F01003BB6128
:102B6000BB6900237B619A4A994B1B6B43F00403BA
:102B70001363974B1B6B03F004037B617B6900239A
:102B80003B61934A924B1B6B43F080031363904B62
:102B90001B6B03F080033B613B690023FB608C4AA5
:102BA0008B4B1B6B43F001031363894B1B6B03F0CF
:102BB0000103FB60FB680023BB60854A844B1B6BF1
:102BC00043F002031363824B1B6B03F00203BB60F1
:102BD000BB6800237B607E4A7D4B1B6B43F0080380
:102BE00013637B4B1B6B03F008037B607B68002245
:102BF00008217848FDF778FF012201217648FDF78A
:102C000073FF00224FF210017448FDF76DFF04239B
:102C1000FB6100233B6200237B6207F11C03194622
:102C20006C48FDF7DFFD0823FB6101233B620023B5
:102C30007B620023BB6207F11C0319466548FDF760
:102C4000D1FD3223FB61664B3B6200237B6207F1BF
:102C50001C0319465F48FDF7C5FD0123FB610123F5
:102C60003B6200237B620023BB6207F11C03194611
:102C70005948FDF7B7FD0823FB6102233B6200239F
:102C80007B620023BB620523FB6207F11C0319462C
:102C90005148FDF7A7FD0123FB61514B3B62002327
:102CA0007B6207F11C0319464E48FDF79BFD10237C
:102CB000FB6102233B6200237B620023BB6206238D
:102CC000FB6207F11C0319464648FDF78BFDE02324
:102CD000FB6102233B6200237B620323BB6205236B
:102CE000FB6207F11C0319463E48FDF77BFD4FF4DC
:102CF000A053FB6102233B6200237B620023BB6283
:102D00000523FB6207F11C0319463748FDF76AFDEE
:102D10004FF21003FB6101233B6200237B6200231F
:102D2000BB6207F11C0319462C48FDF75BFD4FF40D
:102D3000A453FB6102233B6200237B620023BB623E
:102D40000623FB6207F11C0319462348FDF74AFDE1
:102D50004FF40073FB6100233B6200237B6207F1A9
:102D60001C0319461F48FDF73DFD4FF4E053FB617E
:102D700002233B6200237B620323BB620A23FB62C4
:102D800007F11C0319461748FDF72CFD2023FB61B2
:102D900000233B6200237B6207F11C0319460F48A6
:102DA000FDF720FD4FF41073FB6112233B620123FA
:102DB0007B620023BB620423FB6207F11C031946FC
:102DC0000948FDF70FFD00BF3037BD4680BD00BF8D
:102DD000003802400010024000080240000C02408F
:102DE00000001210000002400004024080B584B0D0
:102DF00000AF7860FFF7C3F90346BB600023FB60B8
:102E000007F108034FF47A711846FFF7FAF9FB68E7
:102E1000002B08D000224FF400410748FDF764FE64
:102E20000023FB60ECE701224FF400410248FDF76C
:102E30005BFE0123FB60E3E7000C024080B584B039
:102E400000AF7860FFF79BF90346FB6007F10C03C6
:102E50004FF47A711846FFF7D4F9F7E780B582B0DE
:102E600000AF78607B681B68044A934201D1FDF78C
:102E700077FB00BF0837BD4680BD00BF00000140A2
:102E800080B483B000AF78603960FEE780B500AFF2
:102E90000320FDF749FC002200216FF00B00FDF735
:102EA0004EFC002200216FF00A00FDF748FC0022D2
:102EB00000216FF00900FDF742FC002200216FF0B5
:102EC0000400FDF73CFC002200216FF00300FDF739
:102ED00036FC00220F216FF00100FDF730FC0022CC
:102EE0000F214FF0FF30FDF72AFC00BF80BD00002E
:102EF00080B58CB000AF78600023FB620023BB621A
:102F0000002279681920FDF71AFC1920FDF733FC1F
:102F10000023FB601F4A1F4B5B6C43F001035364AB
:102F20001C4B5B6C03F00103FB60FB6807F11002B4
:102F300007F1140311461846FEF7F2F9FEF7DCF923
:102F400003465B00FB62FB6A134AA2FB03239B0C54
:102F5000013BBB62114B124A1A60104B40F2E73240
:102F6000DA600E4ABB6A53600C4B00221A610B4BAD
:102F700000229A600948FEF705FA0346002B04D1A7
:102F80000648FEF734FA034600E0012318463037BE
:102F9000BD4680BD0038024083DE1B437C3D0020DF
:102FA0000000014080B500AFFFF720F900BF80BDF1
:102FB00080B500AF0248FEF735FA00BF80BD00BF04
:102FC0007C3D002080B400AF164A164BD3F8883001
:102FD00043F47003C2F88830134A134B1B6843F064
:102FE00001031360104B00229A600F4A0E4B1B68BE
:102FF00023F0847323F4803313600B4B0B4A5A6025
:10300000094A094B1B6823F480231360064B0022F6
:10301000DA60044B4FF000629A6000BFBD465DF875
:10302000047B704700ED00E00038024010300024BF
:10303000DFF834D0002103E00C4B5B5843500431DF
:103040000B480C4B42189A42F6D30B4A02E000237D
:1030500042F8043B094B9A42F9D3FFF7B3FF00F063
:1030600011F8FFF7C3FC704700000220643100082C
:10307000000000200800002008000020B83D0020CB
:10308000FEE7000070B50D4E0D4CA41BA4100025EA
:10309000A54209D10B4E0C4C00F018F8A41BA4104B
:1030A0000025A54205D170BD56F825309847013559
:1030B000EEE756F8253098470135F2E75C31000815
:1030C0005C3100085C31000860310008F8B500BFD1
:1030D000F8BC08BC9E467047F8B500BFF8BC08BCF9
:0430E0009E46704751
:1030E40049444C450000000064656661756C745485
:1030F40061736B00EC3000083D2E000800000000F6
:103104000000000080000000626C696E6B4C69670F
:103114006874735461736B000C310008ED2D000862
:103124000000000001000000000100005372632F42
:103134006D61696E2E630000000000000000000055
:103144000102030406070809000000000102030449
:08315400E8D0FF7F010000003C
:04315C00C5010008A1
:04316000A1010008C1
:08316400AAAAAAAA0024F400A3
:04000005080030318E
:00000001FF
